:100000000C945A000C9477000C9477000C947700B1
:100010000C9477000C9477000C9477000C94770084
:100020000C9477000C9422010C9477000C947700C8
:100030000C9477000C9477000C9477000C94770064
:100040000C946B030C9477000C9477000C9477005D
:100050000C9477000C9477000C9477000C94770044
:100060000C9477000C947700000024272A000025C8
:10007000282B000023262904040404040404040299
:100080000202020202030303030303010204081035
:100090002040800102040810200102040810200002
:1000A0000000070002010000030406000000000039
:1000B0000000000011241FBECFEFD4E0DEBFCDBF93
:1000C00011E0A0E0B1E0E0E3FAE002C005900D929B
:1000D000A432B107D9F711E0A4E2B1E001C01D924A
:1000E000AF33B107E1F70E9464030C9417050C9439
:1000F00000000F931F938B019C01809170008E7FF5
:10010000809370008091B0008C7F8093B0008091CC
:10011000B100877F8093B1008091B6008F7D80937E
:10012000B600809170008D7F809370008091B10047
:1001300084608093B1008091B1008C7F8093B10086
:1001400086E090E09093300180932F010115110516
:100150002105310569F481E090E0A0E0B0E08093F2
:10016000240190932501A0932601B093270108C094
:100170000093240110932501209326013093270139
:1001800050932901409328011F910F9108951092D7
:100190002A0110922B0110922C0110922D01109225
:1001A0002E0180912F01909130018093B200E0E701
:1001B000F0E08081816080830895E0E7F0E0808155
:1001C0008E7F8083089580912A0190912B01A091C8
:1001D0002C01B0912D010196A11DB11D80932A0122
:1001E00090932B01A0932C01B0932D0120912A0113
:1001F00030912B0140912C0150912D0180912401CF
:1002000090912501A0912601B09127012817390767
:100210004A075B07B0F080912E01882391F481E0BA
:1002200080932E0110922A0110922B0110922C0122
:1002300010922D01E0912801F09129010995109269
:100240002E0108951F920F920FB60F9211242F9333
:100250003F934F935F936F937F938F939F93AF934E
:10026000BF93EF93FF9380912F0190913001809382
:10027000B2000E94E300FF91EF91BF91AF919F9177
:100280008F917F916F915F914F913F912F910F903F
:100290000FBE0F901F90189580931F0108958093B3
:1002A00020010895809321010895809322010895EB
:1002B000882311F08093230108959093380180934F
:1002C00037010895F894A9E1B1E0E2E3F1E010828A
:1002D00081918D9381E0E733F807C9F788E2809335
:1002E0001E0178940895E62FFF27EB5FFE4FE08113
:1002F000F89490911901882311F09E2B02C0E0958B
:100300009E23909319017894089563E10E947301EC
:10031000089562E10E9473010895CF93DF93F894EA
:10032000CDE1D1E0DC019C012C5F3F4FED918E2FA0
:1003300080538A3020F4FF27EB52FF4F1EC08E2FD0
:100340008154863020F4FF27E253FF4F16C08E2FD2
:100350008156863020F4FF27E255FF4F0EC0E03271
:1003600019F0ED3231F403C080E090E008C0E0E124
:1003700001C0E1E1FF27EB5FFE4F80819927888371
:100380002197A217B30791F67894DF91CF91089542
:1003900080E091E00E948D010895EF92FF920F930B
:1003A0001F93CF93DF93CDB7DEB724970FB6F894A2
:1003B000DEBF0FBECDBF8C0189519C4F875F9A4233
:1003C00018F00E94C80127C017FD02C040E006C017
:1003D0008DE28983109501951F4F41E034E07E0145
:1003E0000894E11CF11C12C03150C8016AE070E0B1
:1003F0000E94E204282FC8016AE070E00E94E20433
:100400008B01F701E30FF11D205D2083431760F39B
:10041000C7010E948D0124960FB6F894DEBF0FBE6F
:10042000CDBFDF91CF911F910F91FF90EF90089575
:10043000EF92FF920F931F93CF93DF93CDB7DEB769
:1004400024970FB6F894DEBF0FBECDBF8C0187E2B4
:100450000031180718F00E94C8011BC033E07E016C
:100460000894E11CF11CC8016AE070E00E94CE040F
:10047000282FC8016AE070E00E94CE048B01F701CA
:10048000E30FF11D205D2083315068F7C7010E9402
:100490008D0124960FB6F894DEBF0FBECDBFDF915D
:1004A000CF911F910F91FF90EF90089580913101AE
:1004B0008823E1F3809131018823E1F708951F93A8
:1004C0008091390111E081278093390160913901D0
:1004D000809120010E94830480913901882359F082
:1004E00080913A01812780933A0160913A0180918D
:1004F0001F010E94830480913101882381F01092B2
:10050000310160913101809121010E948304E091C9
:100510003701F0913801309709F05CC05CC08091E0
:100520001E018823D9F180913901882329F1609136
:100530003201661F6627661F809122010E94830494
:1005400080E090E030E006C0832F992720E08430DF
:1005500091053CF4FC01ED5CFE4F2081221F222717
:10056000221FFC01EE5CFE4F8081880F822B80836E
:100570003F5F353048F32FC080911E01815080933A
:100580001E0180911E01882331F510933101609185
:100590003101809121010E9483041DC080913101AD
:1005A0008823C9F4809119018093320180911A0146
:1005B0008093330180911B018093340180911C0151
:1005C0008093350180911D018093360188E28093EC
:1005D0001E0101C009951F91089561E080911F01DE
:1005E0000E94190461E0809120010E94190461E0D9
:1005F000809121010E94190461E0809122010E94F2
:10060000190460E080911F010E94830460E08091E2
:1006100020010E94830460E0809121010E948304F4
:1006200060E0809122010E9483046091230177277A
:10063000882799274FE552E00E9479000E94C70061
:1006400008950F931F93CF93DF930E94560280ED7E
:1006500097E00E94180201ED17E019C0E8010E941E
:1006600056020F5F1F4FCE010E941802C80183700F
:1006700090708130910559F08130910530F08230D1
:10068000910539F0039751F709C081E008C080E077
:1006900001C081E00E94890181E004C080E00E94E5
:1006A000890180E00E948501D9CF82E00E944C013F
:1006B00083E00E944F0187E00E9452018AE00E947D
:1006C00055010E94ED0208950E94D7030E94550330
:1006D0000E942103FDCF1F920F920FB60F9211249B
:1006E0008F939F93AF93BF9380913B0190913C0177
:1006F000A0913D01B0913E010196A11DB11D8093D5
:100700003B0190933C01A0933D01B0933E01BF910A
:10071000AF919F918F910F900FBE0F901F901895E2
:1007200060913B0170913C0180913D0190913E01AF
:1007300027E0660F771F881F991F2A95D1F72DE7AD
:1007400030E040E050E00E94F504CA01B90108958C
:10075000AF92BF92CF92DF92EF92FF920F931F93CF
:100760005B016C010E9490037B018C010E9490034D
:100770006E197F09800B910B6A157B058C059D0511
:10078000A8F31F910F91FF90EF90DF90CF90BF9053
:10079000AF900895019751F0880F991F880F991F06
:1007A00002972FB7F8940197F1F72FBF0895789427
:1007B00010923B0110923C0110923D0110923E01BB
:1007C00084B5826084BD84B5816084BD85B5826056
:1007D00085BD85B5816085BDEEE6F0E080818160F4
:1007E0008083E1E8F0E080818260808380818160A5
:1007F0008083E0E8F0E0808181608083E1EBF0E0DD
:10080000808184608083E0EBF0E080818160808380
:10081000EAE7F0E080818460808380818260808369
:100820008081816080838081806880831092C10094
:100830000895282F3327C90185579F4FFC019491B4
:1008400029583F4FF9018491882381F0E82FFF2731
:10085000E859FF4FE491FF27662329F480819095A2
:100860008923808308958081892B80830895482F70
:100870005527CA0181569F4FFC012491CA01855713
:100880009F4FFC01949149585F4FFA0134913323F3
:1008900019F480E090E00895222331F1233021F40F
:1008A000809180008F7705C0243031F480918000E2
:1008B0008F7D8093800018C0213019F484B58F7724
:1008C00004C0223021F484B58F7D84BD0DC0263054
:1008D00021F48091B0008F7705C0273029F48091F2
:1008E000B0008F7D8093B000E32FFF27EE58FF4FBD
:1008F000E491FF27808120E030E0892311F021E09E
:1009000030E0C9010895482F5527CA0181569F4FED
:10091000FC012491CA0185579F4FFC0194914958CD
:100920005F4FFA0134913323C1F1222331F1233097
:1009300021F4809180008F7705C0243031F48091BC
:1009400080008F7D8093800018C0213019F484B519
:100950008F7704C0223021F484B58F7D84BD0DC013
:10096000263021F48091B0008F7705C0273029F41C
:100970008091B0008F7D8093B000E32FFF27E35973
:10098000FF4FE491FF27662329F480819095892306
:10099000808308958081892B80830895AA1BBB1BC7
:1009A00051E107C0AA1FBB1FA617B70710F0A61B6F
:1009B000B70B881F991F5A95A9F780959095BC0190
:1009C000CD01089597FB092E07260AD077FD04D0A4
:1009D000E5DF06D000201AF4709561957F4F0895E9
:1009E000F6F7909581959F4F0895A1E21A2EAA1BC4
:1009F000BB1BFD010DC0AA1FBB1FEE1FFF1FA217CF
:100A0000B307E407F50720F0A21BB30BE40BF50BCB
:100A1000661F771F881F991F1A9469F76095709554
:100A2000809590959B01AC01BD01CF010895FFCF4A
:100A30002D2D2D2D007E0CB69ECCDAFA0EFEDEEEAC
:100A4000F872BCF2E28010020402000000002802EA
:040A500003070A038B
:00000001FF
